:100000000C9435000C945D000C945D000C945D0024
:100010000C945D000C945D000C945D000C945D00EC
:100020000C945D000C945D000C945D000C945D00DC
:100030000C945D000C945D000C945D000C945D00CC
:100040000C94AE010C945D000C941E020C94F8010B
:100050000C945D000C945D000C945D000C945D00AC
:100060000C945D000C945D00570311241FBECFEF6C
:10007000D8E0DEBFCDBF11E0A0E0B1E0E8E1F7E0FD
:1000800002C005900D92A638B107D9F722E0A6E884
:10009000B1E001C01D92A333B207E1F710E0C5E360
:1000A000D0E004C02197FE010E948403C433D1072D
:1000B000C9F70E9450020C948A030C9400003FB7C9
:1000C000F8948091920190919301A0919401B09144
:1000D000950126B5A89B05C02F3F19F00196A11DDB
:1000E000B11D3FBFBA2FA92F982F8827BC01CD0182
:1000F000620F711D811D911D42E0660F771F881FE1
:10010000991F4A95D1F70895AF92BF92CF92DF928F
:10011000EF92FF920F931F93CF93DF936C017B01BC
:100120008B01040F151FEB015E01AE18BF08C0174D
:10013000D10759F06991D601ED91FC910190F081C0
:10014000E02DC6010995892B79F7C501DF91CF9183
:100150001F910F91FF90EF90DF90CF90BF90AF90E5
:100160000895FC01538D448D252F30E0842F90E0BD
:10017000821B930B541710F0CF96089501970895A2
:10018000FC01918D828D981761F0A28DAE0FBF2F6B
:10019000B11D5D968C91928D9F5F9F73928F90E0C1
:1001A00008958FEF9FEF0895FC01918D828D981730
:1001B00031F0828DE80FF11D858D90E008958FEF6D
:1001C0009FEF0895FC01918D228D892F90E0805C36
:1001D0009F4F821B91098F739927089586E991E0BB
:1001E0000E94E20021E0892B09F420E0822F08958B
:1001F00080E090E0892B29F00E94EE0081110C94A0
:1002000000000895FC01A48DA80FB92FB11DA35AB9
:10021000BF4F2C91848D90E001968F739927848F26
:10022000A689B7892C93A089B1898C918370806449
:100230008C93938D848D981306C00288F389E02DEA
:1002400080818F7D80830895EF92FF920F931F939B
:10025000CF93DF93EC0181E0888F9B8D8C8D981379
:100260001AC0E889F989808185FF15C09FB7F89485
:10027000EE89FF896083E889F989808183708064D1
:1002800080839FBF81E090E0DF91CF911F910F911C
:10029000FF90EF900895F62E0B8D10E00F5F1F4F2B
:1002A0000F731127E02E8C8D8E110CC00FB607FC3A
:1002B000FACFE889F989808185FFF5CFCE010E94C8
:1002C0000201F1CFEB8DEC0FFD2FF11DE35AFF4F33
:1002D000F0829FB7F8940B8FEA89FB898081806256
:1002E000CFCFCF93DF93EC01888D8823B9F0AA8913
:1002F000BB89E889F9898C9185FD03C0808186FDE1
:100300000DC00FB607FCF7CF8C9185FFF2CF80812F
:1003100085FFEDCFCE010E940201E9CFDF91CF91A1
:100320000895CF93DF93FC0101900020E9F7319706
:10033000AF01481B590BBC0186E991E00E94840083
:10034000EC0142E050E066E171E086E991E00E9454
:1003500084008C0F9D1FDF91CF9108951F920F9203
:100360000FB60F9211242F933F938F939F93AF93C8
:10037000BF9380918E0190918F01A0919001B091D7
:10038000910130918D0123E0230F2D3758F501960F
:10039000A11DB11D20938D0180938E0190938F013B
:1003A000A0939001B093910180919201909193015B
:1003B000A0919401B09195010196A11DB11D80936A
:1003C000920190939301A0939401B0939501BF91F2
:1003D000AF919F918F913F912F910F900FBE0F90F2
:1003E0001F90189526E8230F0296A11DB11DD2CFAC
:1003F0001F920F920FB60F9211242F933F934F939A
:100400005F936F937F938F939F93AF93BF93EF937C
:10041000FF9386E991E00E940201FF91EF91BF9165
:10042000AF919F918F917F916F915F914F913F918C
:100430002F910F900FBE0F901F9018951F920F9243
:100440000FB60F9211242F938F939F93EF93FF93E7
:10045000E091A601F091A7018081E091AC01F091BB
:10046000AD0182FD1BC090818091AF018F5F8F73C2
:100470002091B001821741F0E091AF01F0E0EA561F
:10048000FE4F958F8093AF01FF91EF919F918F91D8
:100490002F910F900FBE0F901F9018958081F4CF71
:1004A000789484B5826084BD84B5816084BD85B54F
:1004B000826085BD85B5816085BD80916E0081605B
:1004C00080936E0010928100809181008260809301
:1004D0008100809181008160809381008091800003
:1004E0008160809380008091B10084608093B1002E
:1004F0008091B00081608093B00080917A00846028
:1005000080937A0080917A00826080937A00809153
:100510007A00816080937A0080917A00806880936D
:100520007A001092C100E091A601F091A70182E04B
:100530008083E091A201F091A3011082E091A401D7
:10054000F091A5018FEC80831092AE01E091AA0199
:10055000F091AB0186E08083E091A801F091A901C0
:10056000808180618083E091A801F091A901808160
:1005700088608083E091A801F091A9018081806862
:100580008083E091A801F091A90180818F7D808313
:1005900089E191E00E9491017724739407E811E0CA
:1005A00095E0692EC0E0D0E086E991E00E94E2008B
:1005B000892B09F46EC086E991E00E94C00090ED9D
:1005C000980F9A3008F065C080918C01E82FF0E018
:1005D000E957FE4F90838F5F80938C01853009F03F
:1005E00058C0209103014091020160918601E09181
:1005F0000101A091000190918701309188015091F3
:10060000890170918A01F0918B01872D981749F427
:10061000321739F4541729F4761719F4FE1709F430
:1006200001C080E0882309F43FC08DE391E00E947F
:10063000910110928C01F801262D11922A95E9F76B
:100640000E945F004B015C0188EEC82E83E0D82E2B
:10065000E12CF12C0E945F00681979098A099B0935
:10066000683E734081059105A8F381E0C81AD1085E
:10067000E108F108E8EE8E0EE3E09E1EA11CB11C1D
:10068000C114D104E104F10429F789E191E00E9449
:100690009101209709F488CF0E94EE00882309F485
:1006A00083CF0E94000080CF8BE691E0C0CFE6E9C7
:1006B000F1E01382128288EE93E0A0E0B0E0848340
:1006C0009583A683B78388E091E09183808385EC4E
:1006D00090E09587848784EC90E09787868780EC0C
:1006E00090E0918B808B81EC90E0938B828B82ECFD
:1006F00090E0958B848B86EC90E0978B868B118EA7
:10070000128E138E148E0895EE0FFF1F0590F49134
:08071000E02D0994F894FFCFDD
:10071800060709080000000024018400B1007101E7
:10072800E200C000D4000D0A00456E7465722074A2
:1007380068652050494E20746F20756E6C6F636B2E
:1007480020746865206C6F636B65723A004C6F6348
:100758006B657220756E6C6F636B65642120596FD1
:100768007520656E74657265642074686520636FB2
:1007780072726563742050494E2E00496E636F7221
:10078800726563742050494E2E2054727920616737
:0607980061696E2E0000F5
:00000001FF
